:020000020000FC
:040000000C941C0040
:100034000C94780000E014E022EC37EF41E050E04B
:1000440000938000109381002093850030938400F6
:1000540040936F0078946FEF6AB95030C1F051301B
:10006400D1F05230E1F05330F1F0543001F1553019
:1000740011F1563021F1573031F1583041F15930F6
:1000840051F15A3061F15B3071F10C942F0060E052
:100094006BB90C942F006CEF6BB90C942F0060E6D5
:1000A4006BB90C942F006AED6BB90C942F0062EFBE
:1000B4006BB90C942F0066E66BB90C942F0066EBB9
:1000C4006BB90C942F006EEB6BB90C942F0060EE9F
:1000D4006BB90C942F006EEF6BB90C942F0066EF84
:1000E4006BB90C942F0051E00C942F005395189584
:00000001FF
